S01700004763634170706C69636174696F6E312E737265635B
S11300000C94B1000C94CE000C94CE000C94CE0051
S11300100C94CE000C94CE000C94CE000C94CE0024
S11300200C94CE000C94CE000C94CE000C943F03A0
S11300300C94CE000C94CE000C94CE000C94CE0004
S11300400C94CE000C94CE000C9440010C94CE0081
S11300500C94CE000C94CE000C94CE000C94CE00E4
S11300600C94CE000C94CE0000407A10F35A00A0F9
S1130070724E18090010A5D4E80000E8764817006D
S113008000E40B54020000CA9A3B000000E1F505AD
S1130090000080969800000040420F000000A086F7
S11300A001000000102700000000E8030000000029
S11300B06400000000000A000000000001000000CD
S11300C000002C76D888DC674F0823DFC1DFAE59E7
S11300D0E1B1B796E5E3E453C63AE651997696E87A
S11300E0E6C28426EB898C9B62ED407C6FFCEFBCFE
S11300F09C9F40F2BAA56FA5F490055A2AF75C9329
S11301006B6CF9676DC11BFCE0E40D47FEF520E65E
S1130110B500D0ED902E0300943577050080841E41
S1130120080000204E0A000000C80C333333330F9C
S1130130986E12831141EF8D2114893BE65516CF39
S1130140FEE6DB18D1844B381BF77C1D901DA4BB45
S1130150E424203284725E228100C9F124ECA1E5FA
S11301603D2711241FBECFEFD8E0DEBFCDBF11E085
S1130170A0E0B1E0E8EDF9E102C005900D92A03BEA
S1130180B107D9F721E0A0EBB1E001C01D92A93B72
S1130190B207E1F70E9463030C94EA0C0C9400008C
S11301A080E480937C0086E880937A000895ECE7ED
S11301B0F0E09081907F8F70892B8083EAE7F0E0F4
S11301C0808180648083808186FDFDCF809178006A
S11301D09091790008951092C50087E68093C40039
S11301E088E98093C10086E08093C2000895E0EC22
S11301F0F0E0908195FFFDCF8093C6000895CF93E2
S1130200DF93EC018881882331F021960E94F70066
S113021089918111FBCFDF91CF9108950F931F93A3
S1130220CF93DF9300D000D0CDB7DEB71F928F936A
S11302308CE091E09F938F931F9284E08F93CE0183
S113024001969F938F930E949E0789810FB6F8941D
S1130250DEBF0FBECDBF882351F08E010E5F1F4F4E
S11302600E94F700F80181918F018111F9CF0F905D
S11302700F900F900F90DF91CF911F910F910895E0
S11302801F920F920FB60F9211248F939F9381E0C8
S113029090E09093B2018093B1018091C600809365
S11302A0B8019F918F910F900FBE0F901F901895DA
S11302B0CF92DF92EF92FF920F931F93CF93DF932E
S11302C0CDB7DEB72A970FB6F894DEBF0FBECDBF09
S11302D08E010F5F1F4F22E044E00E947E07C80199
S11302E0780100E010E06C0107C0F70181917F0103
S11302F00E94F7000F5F1F4FF60101900020E9F7FD
S11303003197EC19FD090E171F0778F32A960FB6DB
S1130310F894DEBF0FBECDBFDF91CF911F910F9137
S1130320FF90EF90DF90CF900895539A5B982FEF52
S113033089EF90E0215080409040E1F700C0000038
S11303405B9A089553984B99FECF4B9BFECF4B99E4
S1130350FECF089588E090E04B9BFECF20EA2A95DB
S1130360F1F74B9B07C02091B001220F216020932D
S1130370B00105C02091B001220F2093B0014B9928
S1130380FECF019749F78091B00108952C98982FDA
S1130390907F9BB92B9AEFE9FFE03197F1F700C00A
S11303A000002B988295807F8BB92B9A8FE99FE070
S11303B00197F1F700C000002B9808952C9A982F0C
S11303C0907F9BB92B9AEFE9FFE03197F1F700C0DA
S11303D000002B988295807F8BB92B9A8FE99FE040
S11303E00197F1F700C000002B9808958AB1806F3F
S11303F08AB98FEF84B92B9883E30E94C60182E304
S11304000E94C60188E20E94C6018CE00E94C601D7
S113041081E00E94C6018FE39FE10197F1F700C0DC
S1130420000008950F931F93CF93FC0180818823CC
S113043059F08F01C0E00E94DE01CF5FF801EC0F9C
S1130440F11D80818111F7CFCF911F910F910895F4
S113045081E00E94C6018FE39FE10197F1F700C09C
S1130460000008958F929F92AF92BF92CF92DF9235
S1130470EF92FF920F931F93CF93DF9381E00E943B
S1130480D7005C0182E00E94D700EC0183E00E9467
S1130490D7008C01C0900A01D0900B010D2C000CE8
S11304A0EE08FF08C501BB0CAA0BBB0B9C01AD01F8
S11304B02C193D094E095F09A0EDB7E00E944207DF
S11304C020910801309109014901330FAA08BB08A2
S11304D0A50194012C193D094E095F090E942307C7
S11304E0CA01B901685E7340810991090E94160628
S11304F020E030E04AE754E40E946C059F7720E056
S113050030E040E050E40E94FA0688230CF07AC000
S1130510C0900601D09007010D2C000CEE08FF08D6
S1130520CE01DD0FAA0BBB0B9C01AD012C193D09BB
S11305304E095F09A0EDB7E00E9442072091040133
S1130540309105014901330FAA08BB08A5019401A4
S11305502C193D094E095F090E942307CA01B901FC
S1130560685E7340810991090E94160620E030E01C
S11305704AE754E40E946C059F7720E030E040E0B5
S113058050E40E94FA068823ECF5C0900201D09052
S113059003010D2C000CEE08FF08C801110FAA0B73
S11305A0BB0B9C01AD012C193D094E095F09A0ED5F
S11305B0B7E00E94420720910001309101018901B6
S11305C0330F220B330BA90198012C193D094E0955
S11305D05F090E942307CA01B901685E734081095B
S11305E091090E94160620E030E04AE754E40E9494
S11305F06C059F7720E030E040E050E40E94FA066A
S11306008823B4F08FE091E00E94FF000E9428024A
S113061080E80E94C60181E291E00E9412022FEF5D
S113062083E294EF215080409040E1F700C0000045
S1130630DF91CF911F910F91FF90EF90DF90CF90BA
S1130640BF90AF909F908F90089510928000E1E842
S1130650F0E088E080838081836080832AEF269F96
S1130660C001279F900D11240197909389008093D6
S11306708800EFE6F0E080818260808308951F9215
S11306800F920FB60F9211242F933F934F935F93C2
S11306906F937F938F939F93AF93BF93EF93FF9346
S11306A00E943202FF91EF91BF91AF919F918F9180
S11306B07F916F915F914F913F912F910F900FBE5A
S11306C00F901F901895CF93DF93CDB7DEB7609747
S11306D00FB6F894DEBF0FBECDBF0E94D0000E94BB
S11306E0EB0064E170E082E392E00E9425037894D9
S11306F00E94F6010E94280280E80E94C60180E35D
S113070091E00E94120285EC0E94C60182E491E00D
S11307100E9412022FEF37EA81E6215030408040D8
S1130720E1F700C00000C12CD12C9E012F5F3F4F88
S1130730190181E00E94D7009C878B8782E00E9488
S1130740D7008C0183E00E94D700988B8F87C11457
S1130750D10409F02CC140900A0150900B01052CE2
S1130760000C660877088090060190900701092C18
S1130770000CAA08BB0880910201909103016C014E
S1130780990FEE08FF082B853C85C901330FAA0B8E
S1130790BB0B9C01AD012419350946095709A0ED8D
S11307A0B7E00E9442072091080130910901032E0D
S11307B0000C440B550B24193509460957090E94AE
S11307C02307CA01B901685E7340810991090E9437
S11307D0160620E030E04AE754E40E946C056B877B
S11307E07C878D879E87C801110FAA0BBB0B9C01C8
S11307F0AD01281939094A095B09A0EDB7E00E9447
S1130800420720910401309105018901330F220B25
S1130810330BA9019801281939094A095B090E9477
S11308202307CA01B901685E7340810991090E94D6
S1130830160620E030E04AE754E40E946C054B01C0
S11308405C012F853889C901330FAA0BBB0B9C01AE
S1130850AD012C193D094E095F09A0EDB7E00E94D6
S1130860420720910001309101018901330F220BCD
S1130870330BA90198012C193D094E095F090E9407
S11308802307CA01B901685E7340810991090E9476
S1130890160620E030E04AE754E40E946C052B0180
S11308A03C010E94280280E80E94C60189E491E08C
S11308B00E9412026B857C858D859E850E9451065F
S11308C00E94DE057F936F9389E591E09F938F9358
S11308D03F922F920E94CE0780EC0E94C601C10174
S11308E00E94120287E591E00E941202C501B40140
S11308F00E9451060E94DE057F936F9389E591E083
S11309009F938F933F922F920E94CE07C1010E9422
S1130910120287E591E00E941202C301B2010E9413
S113092051060E94DE057F936F938EE591E09F93BD
S11309308F933F922F920E94CE07C1010E94120210
S113094087E591E00E94120282E691E00E94FF0096
S11309506B857C858D859E850E94580185E691E096
S11309600E94FF00C501B4010E94580185E691E090
S11309700E94FF00C301B2010E94580180E691E089
S11309800E94FF008AE00E94F7003FEF83E294EFA9
S1130990315080409040E1F700C000000FB6F89459
S11309A0DEBF0FBECDBFCC24C394D12CC2CE31E068
S11309B0C316D10409F0BDCE0E9495010E94A20184
S11309C00E94AA018093B6010E94AA018093B301F8
S11309D00E94AA018093B5010E94AA018093B701E5
S11309E00E94AA018093B4011091B5019091B601BF
S11309F02091B30130E0290F311D210F311D909159
S1130A00B701290F311D90E02817390751F00E94D2
S1130A10280280E80E94C60188E691E00E94120242
S1130A204FC01732B0F080E791E00E94FF000E94AF
S1130A30280280E80E94C60183E891E00E94120225
S1130A408FEF93E224EF815090402040E1F700C003
S1130A5000000E94280280E80E94C60183E991E018
S1130A600E94120280EC0E94C6011F921F9380EA2A
S1130A7091E09F938F933F922F920E94CE0780EC38
S1130A800E94C601C1010E94120285EA91E00E94FF
S1130A90FF00812F0E940E0182EA91E00E94FF0074
S1130AA08AE00E94F70088EA91E00E94FF008AE051
S1130AB00E94F7000F900F900F900F900F900F90DF
S1130AC03FEF83E294EF315080409040E1F700C063
S1130AD00000C12CD12C2DCE0E9480050C94A806B8
S1130AE00E94A10658F00E949A0640F029F45F3F44
S1130AF029F00C94680651110C94F4060C94970692
S1130B000E94B90668F39923B1F3552391F3951B19
S1130B10550BBB27AA2762177307840738F09F5F1A
S1130B205F4F220F331F441FAA1FA9F335D00E2E87
S1130B303AF0E0E832D091505040E695001CCAF7F4
S1130B402BD0FE2F29D0660F771F881FBB1F2617B7
S1130B5037074807AB07B0E809F0BB0B802DBF018E
S1130B60FF2793585F4F3AF09E3F510578F00C945D
S1130B7068060C94F4065F3FE4F3983ED4F386953C
S1130B8077956795B795F7959F5FC9F7880F911D7E
S1130B909695879597F90895E1E0660F771F881F6A
S1130BA0BB1F621773078407BA0720F0621B730B1D
S1130BB0840BBA0BEE1F88F7E09508950E94E505B3
S1130BC06894B1110C94F40608950E94C10688F04B
S1130BD09F5798F0B92F9927B751B0F0E1F0660FFD
S1130BE0771F881F991F1AF0BA95C9F714C0B1303E
S1130BF091F00E94F306B1E008950C94F306672F78
S1130C00782F8827B85F39F0B93FCCF3869577956C
S1130C106795B395D9F73EF4909580957095619555
S1130C207F4F8F4F9F4F0895E89409C097FB3EF480
S1130C3090958095709561957F4F8F4F9F4F992325
S1130C40A9F0F92F96E9BB279395F69587957795A3
S1130C506795B795F111F8CFFAF4BB0F11F460FF63
S1130C601BC06F5F7F4F8F4F9F4F16C0882311F0BB
S1130C7096E911C0772321F09EE8872F762F05C0CF
S1130C80662371F096E8862F70E060E02AF09A956A
S1130C90660F771F881FDAF7880F9695879597F95F
S1130CA008950E94DB0690F09F3748F4911116F0E6
S1130CB00C94F40660E070E080E89FEB089526F45D
S1130CC01B16611D711D811D0C946E060C94890602
S1130CD097F99F6780E870E060E00895882371F4D5
S1130CE0772321F09850872B762F07C0662311F4C1
S1130CF099270DC09051862B70E060E02AF09A95F8
S1130D00660F771F881FDAF7880F9695879597F9EE
S1130D1008959F3F31F0915020F48795779567951A
S1130D20B795880F911D9695879597F908959FEF2C
S1130D3080EC089500240A9416161706180609066E
S1130D40089500240A94121613061406050608953D
S1130D50092E0394000C11F4882352F0BB0F40F4C5
S1130D60BF2B11F460FF04C06F5F7F4F8F4F9F4F05
S1130D70089557FD9058440F551F59F05F3F71F087
S1130D804795880F97FB991F61F09F3F79F08795EE
S1130D900895121613061406551FF2CF4695F1DF77
S1130DA008C0161617061806991FF1CF8695710507
S1130DB06105089408950E94C106A0F0BEE7B91722
S1130DC088F4BB279F3860F41616B11D672F782F5F
S1130DD08827985FF7CF869577956795B11D93958A
S1130DE09639C8F30895E894BB2766277727CB0183
S1130DF097F908950E94FF0608F48FEF0895990F5C
S1130E000008550FAA0BE0E8FEEF16161706E807D0
S1130E10F907C0F012161306E407F50798F0621BF1
S1130E20730B840B950B39F40A2661F0232B242BC6
S1130E30252B21F408950A2609F4A140A6958FEFE5
S1130E40811D811D0895052E97FB1EF400940E94B8
S1130E503A0757FD07D00E944D0707FC03D04EF414
S1130E600C943A0750954095309521953F4F4F4F3C
S1130E705F4F089590958095709561957F4F8F4F42
S1130E809F4F08950E946F07A59F900DB49F900DEA
S1130E90A49F800D911D11240895A1E21A2EAA1B6E
S1130EA0BB1BFD010DC0AA1FBB1FEE1FFF1FA21716
S1130EB0B307E407F50720F0A21BB30BE40BF50B13
S1130EC0661F771F881F991F1A9469F7609570959C
S1130ED0809590959B01AC01BD01CF010895A29F1F
S1130EE0B001B39FC001A39F700D811D1124911DFA
S1130EF0B29F700D811D1124911D0895EF920F93DF
S1130F001F93CF93DF93E80147FD02C034E001C093
S1130F1034E1042E000C550B57FF03C05195419545
S1130F205109E32E022F242FAE010E94D109CE01D4
S1130F30DF91CF911F910F91EF900895AEE0B0E053
S1130F40E4EAF7E00C94C10C0D891E898F89988D11
S1130F5026E02C831A83098397FF02C080E090E87F
S1130F6001979E838D83AE01455E5F4F698D7A8DB7
S1130F70CE0101960E94F0074D815E8157FD0AC0A3
S1130F802F813885421753070CF49A01F801E20FB8
S1130F90F31F10822E96E4E00C94DD0CAEE0B0E07A
S1130FA0E4EDF7E00C94C10C0D891E8986E08C8376
S1130FB01A8309838FEF9FE79E838D83AE01475E7B
S1130FC05F4F6F89788DCE0101960E94F007EF8103
S1130FD0F885E00FF11F10822E96E4E00C94DD0CEE
S1130FE0ABE0B0E0E6EFF7E00C94B30C6C017B01EE
S1130FF08A01FC0117821682838181FFCCC1CE0154
S113100001963C01F6019381F70193FD859193FFCD
S113101081917F01882309F4BAC1853239F493FDA3
S1131020859193FF81917F01853229F4B60190E087
S11310300E94190CE7CF912C212C312CFFE1F315E0
S1131040D8F08B3279F038F4803279F08332A1F41D
S1131050232D20611DC08D3261F0803369F4232D6E
S1131060216016C0832D8260382EE32DE4603E2E6D
S11310702AC0F32DF8601DC037FC2DC020ED280FC9
S11310802A3040F08E32B9F436FC81C1232D20641D
S1131090322E19C036FE06C08AE0989E200D112417
S11310A0922E11C0EAE02E9E200D1124222EF32D43
S11310B0F0623F2E08C08C3621F4832D8068382ED0
S11310C002C0883641F4F70193FD859193FF819125
S11310D07F018111B3CF982F9F7D9554933028F4CD
S11310E00C5F1F4F9FE399830DC0833631F0833724
S11310F071F0833509F059C021C0F80180818983DA
S11311000E5F1F4F88248394912C530113C0280130
S1131110F2E04F0E511CF801A080B18036FE03C0EE
S1131120692D70E002C06FEF7FEFC5010E940E0CC5
S11311304C018201F32DFF773F2E16C0280122E0D7
S1131140420E511CF801A080B18036FE03C0692D07
S113115070E002C06FEF7FEFC5010E94030C4C01E9
S1131160F32DF0683F2E820133FC1BC0822D90E0EA
S113117088169906B0F4B60180E290E00E94190C3A
S11311802A94F4CFF50137FC859137FE81915F01F4
S1131190B60190E00E94190C21102A9421E0821AD1
S11311A091088114910471F7E8C0843611F08936EE
S11311B041F5F80137FE07C0608171818281938116
S11311C00C5F1F4F08C060817181072E000C880BD3
S11311D0990B0E5F1F4FF32DFF763F2E97FF09C02B
S11311E090958095709561957F4F8F4F9F4FF068D4
S11311F03F2E2AE030E0A3010E94550C882E861869
S113120045C0853731F4232D2F7EB22E2AE030E0FD
S113121025C0932D997FB92E8F36C1F018F48835E7
S113122079F0B5C0803719F0883721F0B0C0E92FC4
S1131230E061BE2EB4FE0DC0FB2DF460BF2E09C0CC
S113124034FE0AC0292F2660B22E06C028E030E002
S113125005C020E130E002C020E132E0F801B7FE31
S113126007C060817181828193810C5F1F4F06C02A
S11312706081718180E090E00E5F1F4FA3010E94A6
S1131280550C882E8618FB2DFF773F2E36FE0DC099
S1131290232D2E7FA22E891458F434FE0BC032FC69
S11312A009C0832D8E7EA82E05C0B82CA32C03C0A4
S11312B0B82C01C0B92CA4FE0FC0FE01E80DF11D2D
S11312C08081803321F49A2D997EA92E09C0A2FE33
S11312D006C0B394B39404C08A2D867809F0B394FD
S11312E0A3FC11C0A0FE06C0B21488F4280C922CF2
S11312F09B180EC0B21460F4B60180E290E00E9424
S1131300190CB394F7CFB21418F42B1802C0982C0C
S1131310212CA4FE10C0B60180E390E00E94190CB9
S1131320A2FE17C0A1FC03C088E790E002C088E5D4
S113133090E0B6010CC08A2D867859F0A1FE02C057
S11313408BE201C080E2A7FC8DE2B60190E00E942E
S1131350190C891438F4B60180E390E00E94190C4A
S11313609A94F7CF8A94F301E80DF11D8081B601B8
S113137090E00E94190C8110F5CF222009F442CE8E
S1131380B60180E290E00E94190C2A94F6CFF6018F
S11313908681978102C08FEF9FEF2B96E2E10C9438
S11313A0CF0CA9E0B0E0E7EDF9E00C94B90C6A01C8
S11313B0122FB02E2BE3201720F0FF24F394F00E0D
S11313C002C02CE3F22E0F2D27E0AE014F5F5F4FDA
S11313D00E942B0BBC014981842F8970813031F02C
S11313E0E1FC06C0E0FE06C090E205C09DE203C039
S11313F09BE201C090E05E2D507143FF3CC091110F
S113140002C083E001C084E0811718F4212F281B57
S113141001C020E051110BC0F601822F30E2882375
S113142019F031938150FBCFC20ED11C20E09923D7
S113143029F0D6019C93F60131966F01C6010396FB
S1131440E2FE0AC03EE4D6013C9341E411964C937B
S1131450119712963C9306C03EE6F601308341E6AE
S113146041833283FC01322F40E2332309F442C02A
S113147041933150FACF42FF44C0911102C083E03E
S113148001C084E0811718F4212F281B01C020E03B
S113149051110BC0F601822F30E2882319F03193E9
S11314A08150FBCFC20ED11C20E0992329F0D60134
S11314B09C93F60131966F01C6010396E2FE0BC0C0
S11314C039E4D6013C933EE411963C93119736E4FB
S11314D012963C9307C039E6F60130833EE6318329
S11314E036E63283FC01322F40E2332319F0419374
S11314F03150FBCFFC01E20FF11D10828EEF9FEF04
S1131500A6C021E030E0911102C020E030E01616C0
S113151017061CF4FB01319602C0E1E0F0E02E0F47
S11315203F1FBB2021F0EB2DF0E0319602C0E0E03C
S1131530F0E02E0F3F1FE12FF0E02E173F071CF4C1
S1131540121B212F01C020E08E2D887159F4F60161
S1131550822F30E2882319F031938150FBCFC20EE1
S1131560D11C20E0992329F0D6019C93F6013196F1
S11315706F0151110BC0F601822F90E3882319F0FB
S113158091938150FBCFC20ED11C20E00F2D060F8A
S11315909A81342F307144FF03C0913309F4015010
S11315A0101624F4093018F008E001C001E0AB0182
S11315B077FF02C040E050E0FB01E41BF50BA1E023
S11315C0B0E0AC0FBD1FEA0FFB1F8EE2A82E4B014B
S11315D0801A91080B2D10E01195019511094F3FC8
S11315E0BFEF5B0721F4D601AC9211966D0164172D
S11315F075072CF08416950614F4818101C080E3EC
S1131600415051093196D60111967D014017510779
S113161024F0D6018C936701E2CF6417750739F47F
S1131620963320F4953319F4311101C081E3F601A6
S11316308083F701822F90E2882319F091938150DF
S1131640FBCFF701E20FF11D108280E090E02996B4
S1131650ECE00C94D50C283008F027E03327DA01AD
S1131660990F311D87FD916000966105710539F46C
S113167032602E5F3D9330E32A95E1F708959F3F52
S113168030F080387105610509F03C5F3C5F3D93A3
S1131690913008F08068911DDF93CF931F930F93CF
S11316A0FF92EF92192F987F9695E92F969596952C
S11316B0E90FFF27EE53FF4F99273327EE24FF242A
S11316C0A701E70105900894079428F4360FE71E54
S11316D0F81E491F511D660F771F881F991F069416
S11316E0A1F70590079428F4E70EF81E491F561F2A
S11316F0C11D770F881F991F661F0694A1F70590D7
S1131700079428F4F80E491F561FC71FD11D880FD0
S1131710991F661F771F0694A1F70590079420F47C
S1131720490F561FC71FD81F990F661F771F881FA1
S11317300694A9F784911095177041F0D695C79532
S113174057954795F794E7941A95C1F7E8E6F0E0C2
S113175068941590159135916591959105907FE266
S11317607395E118F10A430B560BC90BD009C0F766
S1131770E10CF11E431F561FC91FD01D7EF47033A8
S113178011F48A95E6CFE894015030F0080F0AF47A
S11317900027021708F4202F2395022F7A3328F00C
S11317A079E37D932A95E9F710C07D932A9589F60C
S11317B0069497956795379517951794E118F10A4C
S11317C0430B560BC90BD00998F023957E91739562
S11317D07A3308F070E37C932013B8F77E9170613C
S11317E07D9330F0839571E37D9370E32A95E1F75F
S11317F01124EF90FF900F911F91CF91DF919927C2
S113180087FD90950895FC0105906150704001108A
S1131810D8F7809590958E0F9F1F0895FC01615015
S1131820704001900110D8F7809590958E0F9F1FFE
S113183008950F931F93CF93DF93FB01238121FD21
S113184003C08FEF9FEF2CC022FF16C04681578143
S1131850248135814217530744F4A081B1819D014D
S11318602F5F3F4F318320838C93268137812F5FF5
S11318703F4F3783268314C08B01EC01FB010084A6
S1131880F185E02D0995892BE1F6D80116968D9105
S11318909C911797019617969C938E931697CE0159
S11318A0DF91CF911F910F910895FA01AA27283053
S11318B051F1203181F1E8946F936E7F6E5F7F4F19
S11318C08F4F9F4FAF4FB1E03ED0B4E03CD0670F95
S11318D0781F891F9A1FA11D680F791F8A1F911DE8
S11318E0A11D6A0F711D811D911DA11D20D009F438
S11318F068943F912AE0269F11243019305D31937A
S1131900DEF6CF010895462F4770405D4193B3E062
S11319100FD0C9F7F6CF462F4F70405D4A3318F009
S1131920495D31FD4052419302D0A9F7EACFB4E0BA
S1131930A6959795879577956795BA95C9F7009772
S11319406105710508959B01AC010A2E0694579513
S1131950479537952795BA95C9F7620F731F841F6A
S1131960951FA01D08952F923F924F925F926F9200
S11319707F928F929F92AF92BF92CF92DF92EF921B
S1131980FF920F931F93CF93DF93CDB7DEB7CA1B9C
S1131990DB0B0FB6F894DEBF0FBECDBF09942A88C7
S11319A0398848885F846E847D848C849B84AA846F
S11319B0B984C884DF80EE80FD800C811B81AA81FC
S11319C0B981CE0FD11D0FB6F894DEBF0FBECDBFC7
S10B19D0ED010895F894FFCF26
S11319D8AE011F0198010D019801100125750045FC
S11319E83A46414C4C204445544543544544210A05
S11319F80046414C4C204445544543544544210039
S1131A084865616C7468204D6F6E69746F72696E95
S1131A18670044657669636500416363656C657254
S1131A286F6D657465723A2000256447200025644B
S1131A384700413A00472C004E6F2074656D7000D2
S1131A48453A464556455220444554454354454431
S1131A58210A004665766572204465746563746579
S1131A6864210054656D70657261747572653A001D
S1131A782575204300543A00483A4E6F6E650000BD
S9030000FC
