S00F0000616363746573742E737265632E
S11300000C94B1000C94CE000C94CE000C94CE0051
S11300100C94CE000C94CE000C94CE000C94CE0024
S11300200C94CE000C94CE000C94CE000C945E0282
S11300300C94CE000C94CE000C94CE000C94CE0004
S11300400C94CE000C94CE000C94EE010C94CE00D3
S11300500C94CE000C94CE000C94CE000C94CE00E4
S11300600C94CE000C94CE0000407A10F35A00A0F9
S1130070724E18090010A5D4E80000E8764817006D
S113008000E40B54020000CA9A3B000000E1F505AD
S1130090000080969800000040420F000000A086F7
S11300A001000000102700000000E8030000000029
S11300B06400000000000A000000000001000000CD
S11300C000002C76D888DC674F0823DFC1DFAE59E7
S11300D0E1B1B796E5E3E453C63AE651997696E87A
S11300E0E6C28426EB898C9B62ED407C6FFCEFBCFE
S11300F09C9F40F2BAA56FA5F490055A2AF75C9329
S11301006B6CF9676DC11BFCE0E40D47FEF520E65E
S1130110B500D0ED902E0300943577050080841E41
S1130120080000204E0A000000C80C333333330F9C
S1130130986E12831141EF8D2114893BE65516CF39
S1130140FEE6DB18D1844B381BF77C1D901DA4BB45
S1130150E424203284725E228100C9F124ECA1E5FA
S11301603D2711241FBECFEFD8E0DEBFCDBF11E085
S1130170A0E0B1E0EAEFFEE002C005900D92AA32E1
S1130180B107D9F721E0AAE2B1E001C01D92A3337F
S1130190B207E1F70E9482020C947B070C940000E2
S11301A080E480937C0086E880937A000895ECE7ED
S11301B0F0E09081907F8F70892B8083EAE7F0E0F4
S11301C0808180648083808186FDFDCF809178006A
S11301D09091790008958F929F92AF92BF92CF929F
S11301E0DF92EF92FF920F931F93CF93DF9381E0FF
S11301F00E94D7005C0182E00E94D700EC0183E0FA
S11302000E94D7008C01C0900A01D0900B010D2CE4
S1130210000CEE08FF08C501BB0CAA0BBB0B9C012C
S1130220AD012C193D094E095F09A0EDB7E00E940C
S1130230B60420910801309109014901330FAA083D
S1130240BB08A50194012C193D094E095F090E94C0
S11302509704CA01B901685E7340810991090E943B
S1130260E20320E030E04AE754E40E946E039F7703
S113027020E030E040E050E40E946E0488230CF05B
S11302807AC0C0900601D09007010D2C000CEE0836
S1130290FF08CE01DD0FAA0BBB0B9C01AD012C198D
S11302A03D094E095F09A0EDB7E00E94B604209114
S11302B00401309105014901330FAA08BB08A501C7
S11302C094012C193D094E095F090E949704CA0143
S11302D0B901685E7340810991090E94E20320E03C
S11302E030E04AE754E40E946E039F7720E030E058
S11302F040E050E40E946E048823ECF5C0900201B3
S1130300D09003010D2C000CEE08FF08C801110F5A
S1130310AA0BBB0B9C01AD012C193D094E095F09C9
S1130320A0EDB7E00E94B6042091000130910101D4
S11303308901330F220B330BA90198012C193D09B4
S11303404E095F090E949704CA01B901685E7340AF
S1130350810991090E94E20320E030E04AE754E475
S11303600E946E039F7720E030E040E050E40E945A
S11303706E0488231CF081E080932A01DF91CF91E1
S11303801F910F91FF90EF90DF90CF90BF90AF90AF
S11303909F908F9008951092C50087E68093C400C3
S11303A088E98093C10086E08093C2000895E0EC60
S11303B0F0E0908195FFFDCF8093C6000895CF9320
S11303C0DF93EC018881882331F021960E94D701C4
S11303D089918111FBCFDF91CF9108951F920F92E4
S11303E00FB60F9211248F939F9381E090E0909326
S11303F02C0180932B018091C600809332019F9140
S11304008F910F900FBE0F901F901895CF92DF928F
S1130410EF92FF920F931F93CF93DF93CDB7DEB785
S11304202A970FB6F894DEBF0FBECDBF8E010F5FC3
S11304301F4F22E044E00E94F204C801780100E06A
S113044010E06C0107C0F70181917F010E94D70180
S11304500F5F1F4FF60101900020E9F73197EC1967
S1130460FD090E171F0778F32A960FB6F894DEBF1E
S11304700FBECDBFDF91CF911F910F91FF90EF90F1
S1130480DF90CF90089510928000E1E8F0E088E0DA
S113049080838081836080832AEF269FC001279F09
S11304A0900D112401979093890080938800EFE6C2
S11304B0F0E0808182608083789408951F920F9287
S11304C00FB60F9211242F933F934F935F936F9323
S11304D07F938F939F93AF93BF93EF93FF930E9468
S11304E0EB00FF91EF91BF91AF919F918F917F911D
S11304F06F915F914F913F912F910F900FBE0F908D
S11305001F9018950E94D0000E94CB0164E170E016
S11305108BEE90E00E94430280912A01882339F0F7
S11305208FE091E00E94DF0110922A01F5CF81E073
S11305300E94D7008C0182E00E94D700EC0183E086
S11305400E94D7001C0140900A0150900B01052C19
S1130550000C660877088090060190900701092C2A
S1130560000CAA08BB08C0900201D09003010D2C16
S1130570000CEE08FF08C801110FAA0BBB0B9C016D
S1130580AD012419350946095709A0EDB7E00E94C9
S1130590B60420910801309109018901330F220B1F
S11305A0330BA901980124193509460957090E94FA
S11305B09704CA01B901685E7340810991090E94D8
S11305C0E20320E030E04AE754E40E946E032B018A
S11305D03C01CE01DD0FAA0BBB0B9C01AD01281918
S11305E039094A095B09A0EDB7E00E94B6042091DD
S11305F00401309105018901330F220B330BA9014A
S11306009801281939094A095B090E949704CA010B
S1130610B901685E7340810991090E94E20320E0F8
S113062030E04AE754E40E946E034B015C01C101CF
S1130630330CAA0BBB0B9C01AD012C193D094E09CF
S11306405F09A0EDB7E00E94B6042091000130914B
S113065001018901330F220B330BA90198012C19D5
S11306603D094E095F090E949704CA01B901685EF9
S11306707340810991090E94E20320E030E04AE7D7
S113068054E40E946E036B017C0181E291E00E94BC
S1130690DF01C301B2010E94060284E291E00E94DC
S11306A0DF01C501B4010E94060284E291E00E94C8
S11306B0DF01C701B6010E94060287E291E00E94B1
S11306C0DF018AE00E94D7012FEF83E294EF2150EB
S11306D080409040E1F700C000001ECF0E948203DA
S11306E00C9434040E942D0458F00E94260440F017
S11306F029F45F3F29F00C941D0451110C946804F3
S11307000C9423040E94450468F39923B1F3552300
S113071091F3951B550BBB27AA2762177307840710
S113072038F09F5F5F4F220F331F441FAA1FA9F3A6
S113073035D00E2E3AF0E0E832D091505040E69594
S1130740001CCAF72BD0FE2F29D0660F771F881FF5
S1130750BB1F261737074807AB07B0E809F0BB0BE8
S1130760802DBF01FF2793585F4F3AF09E3F5105FC
S113077078F00C941D040C9468045F3FE4F3983EF5
S1130780D4F3869577956795B795F7959F5FC9F7E5
S1130790880F911D9695879597F90895E1E0660F66
S11307A0771F881FBB1F621773078407BA0720F0DF
S11307B0621B730B840BBA0BEE1F88F7E095089548
S11307C0E89409C097FB3EF49095809570956195E7
S11307D07F4F8F4F9F4F9923A9F0F92F96E9BB279D
S11307E09395F695879577956795B795F111F8CF19
S11307F0FAF4BB0F11F460FF1BC06F5F7F4F8F4F84
S11308009F4F16C0882311F096E911C0772321F079
S11308109EE8872F762F05C0662371F096E8862F11
S113082070E060E02AF09A95660F771F881FDAF768
S1130830880F9695879597F9089597F99F6780E8AB
S113084070E060E008959FEF80EC089500240A941E
S11308501616170618060906089500240A94121697
S11308601306140605060895092E0394000C11F4CA
S1130870882352F0BB0F40F4BF2B11F460FF04C077
S11308806F5F7F4F8F4F9F4F089557FD9058440FD0
S1130890551F59F05F3F71F04795880F97FB991FDB
S11308A061F09F3F79F08795089512161306140698
S11308B0551FF2CF4695F1DF08C016161706180625
S11308C0991FF1CF86957105610508940895E89400
S11308D0BB2766277727CB0197F908950E947304F5
S11308E008F48FEF0895990F0008550FAA0BE0E85C
S11308F0FEEF16161706E807F907C0F012161306DE
S1130900E407F50798F0621B730B840B950B39F41D
S11309100A2661F0232B242B252B21F408950A2683
S113092009F4A140A6958FEF811D811D0895052E20
S113093097FB1EF400940E94AE0457FD07D00E945A
S1130940C10407FC03D04EF40C94AE0450954095BA
S1130950309521953F4F4F4F5F4F08959095809567
S1130960709561957F4F8F4F9F4F08950E94E304C8
S1130970A59F900DB49F900DA49F800D911D1124EF
S11309800895A1E21A2EAA1BBB1BFD010DC0AA1FCC
S1130990BB1FEE1FFF1FA217B307E407F50720F0E4
S11309A0A21BB30BE40BF50B661F771F881F991F5F
S11309B01A9469F760957095809590959B01AC01A8
S11309C0BD01CF010895A29FB001B39FC001A39FB1
S11309D0700D811D1124911DB29F700D811D112474
S11309E0911D0895EF920F931F93CF93DF93E80126
S11309F047FD02C034E001C034E1042E000C550B65
S1130A0057FF03C0519541955109E32E022F242F1E
S1130A10AE010E941205CE01DF91CF911F910F917B
S1130A20EF900895A9E0B0E0E8E1F5E00C944A07FE
S1130A306A01122FB02E2BE3201720F0FF24F39429
S1130A40F00E02C02CE3F22E0F2D27E0AE014F5F13
S1130A505F4F0E946C06BC014981842F89708130EC
S1130A6031F0E1FC06C0E0FE06C090E205C09DE264
S1130A7003C09BE201C090E05E2D507143FF3CC077
S1130A80911102C083E001C084E0811718F4212F82
S1130A90281B01C020E051110BC0F601822F30E267
S1130AA0882319F031938150FBCFC20ED11C20E072
S1130AB0992329F0D6019C93F60131966F01C60162
S1130AC00396E2FE0AC03EE4D6013C9341E411964B
S1130AD04C93119712963C9306C03EE6F601308380
S1130AE041E641833283FC01322F40E2332309F48F
S1130AF042C041933150FACF42FF44C0911102C029
S1130B0083E001C084E0811718F4212F281B01C061
S1130B1020E051110BC0F601822F30E2882319F036
S1130B2031938150FBCFC20ED11C20E0992329F0D0
S1130B30D6019C93F60131966F01C6010396E2FE3D
S1130B400BC039E4D6013C933EE411963C931197D3
S1130B5036E412963C9307C039E6F60130833EE64C
S1130B60318336E63283FC01322F40E2332319F01D
S1130B7041933150FBCFFC01E20FF11D10828EEF47
S1130B809FEFA6C021E030E0911102C020E030E0E8
S1130B90161617061CF4FB01319602C0E1E0F0E0E2
S1130BA02E0F3F1FBB2021F0EB2DF0E0319602C049
S1130BB0E0E0F0E02E0F3F1FE12FF0E02E173F079B
S1130BC01CF4121B212F01C020E08E2D887159F4D2
S1130BD0F601822F30E2882319F031938150FBCF44
S1130BE0C20ED11C20E0992329F0D6019C93F60172
S1130BF031966F0151110BC0F601822F90E38823C7
S1130C0019F091938150FBCFC20ED11C20E00F2D1F
S1130C10060F9A81342F307144FF03C0913309F4D5
S1130C200150101624F4093018F008E001C001E066
S1130C30AB0177FF02C040E050E0FB01E41BF50B81
S1130C40A1E0B0E0AC0FBD1FEA0FFB1F8EE2A82E9F
S1130C504B01801A91080B2D10E011950195110993
S1130C604F3FBFEF5B0721F4D601AC9211966D01A3
S1130C70641775072CF08416950614F4818101C05D
S1130C8080E3415051093196D60111967D014017F8
S1130C90510724F0D6018C936701E2CF64177507DE
S1130CA039F4963320F4953319F4311101C081E3FA
S1130CB0F6018083F701822F90E2882319F0919343
S1130CC08150FBCFF701E20FF11D108280E090E02C
S1130CD02996ECE00C946607283008F027E03327C7
S1130CE0DA01990F311D87FD916000966105710548
S1130CF039F432602E5F3D9330E32A95E1F708958D
S1130D009F3F30F080387105610509F03C5F3C5F1E
S1130D103D93913008F08068911DDF93CF931F932A
S1130D200F93FF92EF92192F987F9695E92F96953E
S1130D309695E90FFF27EE53FF4F99273327EE24AB
S1130D40FF24A701E70105900894079428F4360FBF
S1130D50E71EF81E491F511D660F771F881F991F34
S1130D600694A1F70590079428F4E70EF81E491F8E
S1130D70561FC11D770F881F991F661F0694A1F780
S1130D800590079428F4F80E491F561FC71FD11D5C
S1130D90880F991F661F771F0694A1F70590079483
S1130DA020F4490F561FC71FD81F990F661F771FBE
S1130DB0881F0694A9F784911095177041F0D69571
S1130DC0C79557954795F794E7941A95C1F7E8E6C0
S1130DD0F0E0689415901591359165919591059081
S1130DE07FE27395E118F10A430B560BC90BD00946
S1130DF0C0F7E10CF11E431F561FC91FD01D7EF41E
S1130E00703311F48A95E6CFE894015030F0080F5E
S1130E100AF40027021708F4202F2395022F7A33AF
S1130E2028F079E37D932A95E9F710C07D932A95FC
S1130E3089F6069497956795379517951794E11851
S1130E40F10A430B560BC90BD00998F023957E91F8
S1130E5073957A3308F070E37C932013B8F77E918E
S1130E6070617D9330F0839571E37D9370E32A95EF
S1130E70E1F71124EF90FF900F911F91CF91DF9133
S1130E80992787FD909508952F923F924F925F92F4
S1130E906F927F928F929F92AF92BF92CF92DF9286
S1130EA0EF92FF920F931F93CF93DF93CDB7DEB7EB
S1130EB0CA1BDB0B0FB6F894DEBF0FBECDBF09947F
S1130EC02A88398848885F846E847D848C849B84D6
S1130ED0AA84B984C884DF80EE80FD800C811B81E4
S1130EE0AA81B981CE0FD11D0FB6F894DEBF0FBE13
S10D0EF0CDBFED010895F894FFCF83
S1130EFAAE011F0198010D019801100125750045E5
S1130F0A3A46414C4C204445544543544544210AED
S10D0F1A00413A00472C0047000094
S9030000FC
