S00B00006C63642E73726563E6
S11300000C9434000C9449000C9449000C9449005D
S11300100C9449000C9449000C9449000C94490038
S11300200C9449000C9449000C9449000C94490028
S11300300C9449000C9449000C9449000C94490018
S11300400C9449000C9449000C9449000C94490008
S11300500C9449000C9449000C9449000C944900F8
S11300600C9449000C94490011241FBECFEFD8E032
S1130070DEBFCDBF11E0A0E0B1E0EEEDF1E002C0E3
S113008005900D92A831B107D9F70E94B5000C94E0
S1130090ED000C9400002C98982F907F9BB92B9A1C
S11300A0EFE9FFE03197F1F700C000002B9882954B
S11300B0807F8BB92B9A8FE99FE00197F1F700C0FD
S11300C000002B9808952C9A982F907F9BB92B9A17
S11300D0EFE9FFE03197F1F700C000002B9882951B
S11300E0807F8BB92B9A8FE99FE00197F1F700C0CD
S11300F000002B9808958FEF8AB984B92B9883E375
S11301000E944B0082E30E944B0088E20E944B0055
S11301108EE00E944B0081E00E944B008FE39FE140
S11301200197F1F700C0000008950F931F93CF9338
S1130130FC018081882359F08F01C0E00E94630094
S1130140CF5FF801EC0FF11D80818111F7CFCF91C2
S11301501F910F91089581E00E944B008FE39FE16E
S11301600197F1F700C0000008950E947B0080E829
S11301700E944B0080E091E00E94950085EC0E9473
S11301804B008AE091E00E9495002FEF83E294EF08
S1130190215080409040E1F700C000000E94AB0075
S11301A081E191E00E9495002FEF83ED90E32150CF
S11301B080409040E1F700C000000E94AB0085E160
S11301C091E00E9495002FEF83ED90E32150804051
S11101D09040E1F700C00000E1CFF894FFCFAB
S11301DE48656C6C6F2041565200576F726C6421E7
S10B01EE00796573006E6F00D7
S9030000FC
