:100000000C9434000C9451000C9451000C94510049
:100010000C9451000C9451000C9451000C9451001C
:100020000C9451000C9451000C9451000C9451000C
:100030000C9451000C9451000C9451000C945100FC
:100040000C9451000C9451000C94F8080C9451003D
:100050000C9451000C9451000C9451000C945100DC
:100060000C9451000C94510011241FBECFEFD8E026
:10007000DEBFCDBF11E0A0E0B1E0E4E0FBE102C0F3
:1000800005900D92A632B107D9F721E0A6E2B1E0C2
:1000900001C01D92AF32B207E1F70E941D090C9416
:1000A000800D0C940000CF93DF93CDB7DEB78CE7C3
:1000B00090E0FC0110822CE730E08CE790E0F90141
:1000C0002081FC0120838AE790E0FC0120818AE7FF
:1000D00090E02068FC0120830000DF91CF9108951B
:1000E000CF93DF9300D000D000D0CDB7DEB79C8394
:1000F0008B837E836D838AE790E0FC0120818AE711
:1001000090E02064FC01208300008AE790E0FC017D
:100110008081882F90E080749927892BB1F788E738
:1001200090E0FC01808191819A83898389819A8101
:100130009C01ADECBCEC0E94A40B96958795929522
:1001400082958F7089279F708927282F8B819C81AA
:10015000FC01208389819A81929582958F708927ED
:100160009F708927282F8D819E81FC01208380E04C
:1001700026960FB6F894DEBF0FBECDBFDF91CF91AC
:100180000895CF93DF93CDB7DEB789EB90E0FC0104
:10019000108288EB90E02CE0FC0120838CEB90E057
:1001A00024E0FC0120830000DF91CF910895CF93DC
:1001B000DF93CDB7DEB78CEB90E024EAFC0120831F
:1001C00000008CEB90E0FC0180818823D4F70000D4
:1001D000DF91CF910895CF93DF93CDB7DEB78CEB4E
:1001E00090E024E9FC01208300008CEB90E0FC010E
:1001F0008081882F90E080719927892BB1F70000CA
:10020000DF91CF910895CF93DF931F92CDB7DEB7E3
:1002100089838BEB90E02981FC0120838CEB90E0BB
:1002200024E8FC01208300008CEB90E0FC0180813D
:100230008823D4F700000F90DF91CF910895CF93DA
:10024000DF93CDB7DEB76D970FB6F894DEBF0FBE64
:10025000CDBF8D8F80E090E0A8E4B2E48F87988BCB
:10026000A98BBA8B20E030E04AE755E46F857889A6
:1002700089899A890E94D30CDC01CB018B8B9C8BE2
:10028000AD8BBE8B20E030E040E85FE36B897C897A
:100290008D899E890E94B30B88232CF481E090E025
:1002A000988F8F8B3FC020E03FEF4FE757E46B897B
:1002B0007C898D899E890E94CE0C18164CF520E011
:1002C00030E040E251E46F85788989899A890E94FB
:1002D000D30CDC01CB01BC01CD010E942A0CDC0156
:1002E000CB01988F8F8B0FC080E991E09A8F898F17
:1002F000898D9A8D0197F1F79A8F898F8F89988DC3
:100300000197988F8F8B8F89988D892B69F714C0EF
:100310006B897C898D899E890E942A0CDC01CB0126
:10032000988F8F8B8F89988D9C8F8B8F8B8D9C8DC9
:100330000197F1F79C8F8B8F83E30E94FB0282E38E
:100340000E94FB0288E20E94FB028CE00E94FB02FA
:1003500086E00E94FB0281E00E94FB0280E090E0C8
:10036000A0E0B0E489839A83AB83BC8320E030E0D3
:100370004AE755E469817A818B819C810E94D30C84
:10038000DC01CB018D839E83AF83B88720E030E012
:1003900040E85FE36D817E818F8198850E94B30B79
:1003A00088232CF481E090E09A8789873FC020E081
:1003B0003FEF4FE757E46D817E818F8198850E94E2
:1003C000CE0C18164CF520E030E040E251E4698193
:1003D0007A818B819C810E94D30CDC01CB01BC0112
:1003E000CD010E942A0CDC01CB019A8789870FC0BE
:1003F00080E991E09C878B878B859C850197F1F73D
:100400009C878B8789859A8501979A8789878985B3
:100410009A85892B69F714C06D817E818F819885BB
:100420000E942A0CDC01CB019A87898789859A85ED
:100430009E878D878D859E850197F1F79E878D8795
:1004400000006D960FB6F894DEBF0FBECDBFDF91F2
:10045000CF910895CF93DF93CDB7DEB72E970FB628
:10046000F894DEBF0FBECDBF81E00E94FB0280E0AA
:1004700090E0A0E0B0E489839A83AB83BC8320E062
:1004800030E04AE755E469817A818B819C810E9442
:10049000D30CDC01CB018D839E83AF83B88720E032
:1004A00030E040E85FE36D817E818F8198850E9416
:1004B000B30B88232CF481E090E09A8789873FC0B2
:1004C00020E03FEF4FE757E46D817E818F81988573
:1004D0000E94CE0C18164CF520E030E040E251E4CA
:1004E00069817A818B819C810E94D30CDC01CB01D4
:1004F000BC01CD010E942A0CDC01CB019A878987BF
:100500000FC080E991E09C878B878B859C85019744
:10051000F1F79C878B8789859A8501979A878987C8
:1005200089859A85892B69F714C06D817E818F81B9
:1005300098850E942A0CDC01CB019A8789878985DE
:100540009A859E878D878D859E850197F1F79E8779
:100550008D8700002E960FB6F894DEBF0FBECDBF7C
:10056000DF91CF910895CF93DF9300D01F92CDB745
:10057000DEB78A836B838B81882319F48A81805844
:1005800002C08A818054898389810E94FB02000015
:100590000F900F900F90DF91CF910895CF93DF933D
:1005A00000D0CDB7DEB79A8389830BC089819A8149
:1005B0009C012F5F3F4F3A832983FC0180810E9479
:1005C0001E0389819A81FC018081882379F70000CC
:1005D0000F900F90DF91CF910895CF93DF931F92EB
:1005E000CDB7DEB7898389810E941E0300000F907A
:1005F000DF91CF910895CF93DF9300D01F92CDB7B5
:10060000DEB78B838B81807F886089838B81882F85
:1006100090E082959295907F9827807F98278860B8
:100620008A8389810E9441038A810E9441030000DC
:100630000F900F900F90DF91CF910895CF93DF939C
:1006400000D01F92CDB7DEB78B838B81807F89600E
:1006500089838B81882F90E082959295907F98274F
:10066000807F982789608A8389810E9441038A81DB
:100670000E94410300000F900F900F90DF91CF91E7
:100680000895CF93DF93CDB7DEB7C154D1090FB62C
:10069000F894DEBF0FBECDBF9E012F5B3F4FF90127
:1006A00080830E94D7008EE40E940301CE018F5BFD
:1006B0009F4FFC01808184600E94030180E090E0F4
:1006C000A0E8BFE389A39AA3ABA3BCA32BEA3AEAB1
:1006D0004AEA50E469A17AA18BA19CA10E94D30CA3
:1006E000DC01CB018DA39EA3AFA3B8A720E030E02F
:1006F00040E850E469A17AA18BA19CA10E94D30C8F
:10070000DC01CB0189A79AA7ABA7BCA720E030E00A
:1007100040E85FE36DA17EA18FA198A50E94B30B75
:1007200088231CF481E08DA7B2C020E03FEF4FE7A3
:1007300057E469A57AA58BA59CA50E94CE0C181636
:100740000CF07BC020E030E04AE754E469A17AA1D4
:100750008BA19CA10E94B80BDC01CB018EA79FA7A7
:10076000A8ABB9AB20E030E04AE755E46EA57FA521
:1007700088A999A90E94D30CDC01CB018AAB9BAB61
:10078000ACABBDAB20E030E040E85FE36AA97BA9F9
:100790008CA99DA90E94B30B88232CF481E090E0E2
:1007A0009FAB8EAB3FC020E03FEF4FE757E46AA915
:1007B0007BA98CA99DA90E94CE0C18164CF520E0AF
:1007C00030E040E251E46EA57FA588A999A90E9476
:1007D000D30CDC01CB01BC01CD010E942A0CDC0151
:1007E000CB019FAB8EAB0FC080E991E099AF88AF92
:1007F00088AD99AD0197F1F799AF88AF8EA99FA900
:1008000001979FAB8EAB8EA99FA9892B69F73FC03B
:100810006AA97BA98CA99DA90E942A0CDC01CB01A5
:100820009FAB8EAB8EA99FA99BAF8AAF8AAD9BADC4
:100830000197F1F79BAF8AAF2AC020E030E04FE785
:1008400053E46DA17EA18FA198A50E94CE0C18162D
:10085000ACF469A57AA58BA59CA50E942A0CDC01A5
:10086000CB019DAF8CAF8CAD9DAD9FAF8EAF8EADEC
:100870009FAD0197F1F79FAF8EAF1CC06DA17EA118
:100880008FA198A50E942A0CDC01CB018DA72DA574
:10089000CE01805C9F4FFC012083CE01805C9F4F86
:1008A000FC018081282F2A95F1F7CE01805C9F4FB3
:1008B000FC012083CE018F5B9F4FFC0180818B7FE9
:1008C0000E94030180E090E0A8E4B2E489839A8367
:1008D000AB83BC832BEA3AEA4AEA50E469817A8125
:1008E0008B819C810E94D30CDC01CB018D839E8384
:1008F000AF83B88720E030E040E850E469817A8136
:100900008B819C810E94D30CDC01CB0189879A8763
:10091000AB87BC8720E030E040E85FE36D817E81FB
:100920008F8198850E94B30B88231CF481E08D870A
:10093000B2C020E03FEF4FE757E469857A858B85A9
:100940009C850E94CE0C18160CF07BC020E030E095
:100950004AE754E469817A818B819C810E94B80BBB
:10096000DC01CB018E879F87A88BB98B20E030E01C
:100970004AE755E46E857F85888999890E94D30C62
:10098000DC01CB018A8B9B8BAC8BBD8B20E030E0F4
:1009900040E85FE36A897B898C899D890E94B30B5B
:1009A00088232CF481E090E09F8B8E8B3FC020E069
:1009B0003FEF4FE757E46A897B898C899D890E94C4
:1009C000CE0C18164CF520E030E040E251E46E8584
:1009D0007F85888999890E94D30CDC01CB01BC01F9
:1009E000CD010E942A0CDC01CB019F8B8E8B0FC0A6
:1009F00080E991E0998F888F888D998D0197F1F723
:100A0000998F888F8E899F8901979F8B8E8B8E8976
:100A10009F89892B69F73FC06A897B898C899D8969
:100A20000E942A0CDC01CB019F8B8E8B8E899F89C3
:100A30009B8F8A8F8A8D9B8D0197F1F79B8F8A8F71
:100A40002AC020E030E04FE753E46D817E818F8142
:100A500098850E94CE0C1816ACF469857A858B8532
:100A60009C850E942A0CDC01CB019D8F8C8F8C8D84
:100A70009D8D9F8F8E8F8E8D9F8D0197F1F79F8F0C
:100A80008E8F0FC06D817E818F8198850E942A0C88
:100A9000DC01CB018D878D8588A388A18A95F1F72C
:100AA00088A30E94EB000000CF5BDF4F0FB6F894E5
:100AB000DEBF0FBECDBFDF91CF910895CF93DF93FF
:100AC0001F92CDB7DEB789830E94D7008EE40E94C3
:100AD000030189810E9403010E94EB0000000F9036
:100AE000DF91CF910895CF93DF93CDB7DEB72E97E7
:100AF0000FB6F894DEBF0FBECDBF8AE290E0FC01D6
:100B000020818AE290E02064FC0120838BE290E067
:100B1000FC0120818BE290E02F7BFC01208380E0B0
:100B200090E0A0EAB1E489839A83AB83BC8320E0A0
:100B300030E04AE755E469817A818B819C810E948B
:100B4000D30CDC01CB018D839E83AF83B88720E07B
:100B500030E040E85FE36D817E818F8198850E945F
:100B6000B30B88232CF481E090E09A8789873FC0FB
:100B700020E03FEF4FE757E46D817E818F819885BC
:100B80000E94CE0C18164CF520E030E040E251E413
:100B900069817A818B819C810E94D30CDC01CB011D
:100BA000BC01CD010E942A0CDC01CB019A87898708
:100BB0000FC080E991E09C878B878B859C8501978E
:100BC000F1F79C878B8789859A8501979A87898712
:100BD00089859A85892B69F714C06D817E818F8103
:100BE00098850E942A0CDC01CB019A878987898528
:100BF0009A859E878D878D859E850197F1F79E87C3
:100C00008D878BE290E0FC0120818BE290E02064F4
:100C1000FC01208300002E960FB6F894DEBF0FBEB5
:100C2000CDBFDF91CF910895CF93DF93CDB7DEB7DE
:100C30008AE290E0FC0120818AE290E02F7BFC01B7
:100C40002083000089E290E0FC018081882F90E001
:100C500080749927892BB1F7000089E290E0FC01AC
:100C60008081882F90E080749927892BB1F3000050
:100C700089E290E0FC018081882F90E080749927C0
:100C8000892BB1F70000DF91CF910895CF93DF93C7
:100C9000CDB7DEB7A2970FB6F894DEBF0FBECDBFBB
:100CA0001A82198223C1000089E290E0FC01808150
:100CB000882F90E080749927892BB1F380E090E031
:100CC000A0EFB1E48B839C83AD83BE832BEA3AEA29
:100CD0004AEA50E46B817C818D819E810E94D30C15
:100CE000DC01CB018F839887A987BA8720E030E0A9
:100CF00040E850E46B817C818D819E810E94D30C01
:100D0000DC01CB018B879C87AD87BE8720E030E07C
:100D100040E85FE36F81788589859A850E94B30BEF
:100D200088231CF481E08F87B2C020E03FEF4FE7BB
:100D300057E46B857C858D859E850E94CE0C1816A8
:100D40000CF07BC020E030E04AE754E46B817C810A
:100D50008D819E810E94B80BDC01CB01888B998B21
:100D6000AA8BBB8B20E030E04AE755E4688979899B
:100D70008A899B890E94D30CDC01CB018C8B9D8BD3
:100D8000AE8BBF8B20E030E040E85FE36C897D896B
:100D90008E899F890E94B30B88232CF481E090E018
:100DA000998F888F3FC020E03FEF4FE757E46C8971
:100DB0007D898E899F890E94CE0C18164CF520E003
:100DC00030E040E251E4688979898A899B890E94F0
:100DD000D30CDC01CB01BC01CD010E942A0CDC014B
:100DE000CB01998F888F0FC080E991E09B8F8A8F0C
:100DF0008A8D9B8D0197F1F79B8F8A8F888D998DB6
:100E00000197998F888F888D998D892B69F73FC0BD
:100E10006C897D898E899F890E942A0CDC01CB0117
:100E2000998F888F888D998D9D8F8C8F8C8D9D8DBE
:100E30000197F1F79D8F8C8F2AC020E030E04FE7BB
:100E400053E46F81788589859A850E94CE0C1816A7
:100E5000ACF46B857C858D859E850E942A0CDC0117
:100E6000CB019F8F8E8F8E8D9F8D99A388A388A194
:100E700099A10197F1F799A388A30FC06F81788595
:100E800089859A850E942A0CDC01CB018F878F858A
:100E90008AA38AA18A95F1F78AA389E290E0FC01EE
:100EA0008081882F90E080749927892B51F0809160
:100EB0002601882F90E0880F991F8160809326017A
:100EC00005C080912601880F80932601000089E2E9
:100ED00090E0FC018081882F90E080749927892B15
:100EE000B1F789819A8101969A83898389819A8150
:100EF00008970CF4D8CE80912601A2960FB6F894EC
:100F0000DEBF0FBECDBFDF91CF910895CF93DF93AA
:100F1000CDB7DEB78CE790E020E4FC0120838AE7C0
:100F200090E026E8FC0120830000DF91CF91089536
:100F3000CF93DF931F92CDB7DEB789838CE790E024
:100F4000FC018081982F907F89818F70292F282B19
:100F50008CE790E0FC0120838AE790E0FC0120818F
:100F60008AE790E02064FC01208300008AE790E09B
:100F7000FC018081882F90E080749927892BB1F73C
:100F800088E790E0FC01808191810F90DF91CF9103
:100F90000895CF93DF93CDB7DEB76C970FB6F89473
:100FA000DEBF0FBECDBF988F8F8B7A8F698F4B8F2F
:100FB0002C8F8F89988D4AE050E09E012F5F3F4F24
:100FC000B9010E94400D9E01295F3F4F898D9A8D86
:100FD0004AE050E0B9010E94400D8B8D882F90E0CF
:100FE0009E01235F3F4F4AE050E0B9010E94400D4F
:100FF0008C8D882F90E09E012F5E3F4F4AE050E09D
:10100000B9010E94400D80912E01082E000C990B11
:101010009E012B5E3F4F4AE050E0B9010E94400D17
:101020000E942A0260E080E00E94B30280E091E02A
:101030000E94CE02CE0101960E94CE0284E091E091
:101040000E94CE02CE010D960E94CE0261E080E0A9
:101050000E94B30288E091E00E94CE02CE01419648
:101060000E94CE028DE091E00E94CE02CE01459614
:101070000E94CE0200006C960FB6F894DEBF0FBE41
:10108000CDBFDF91CF910895CF93DF9300D000D0F3
:1010900000D0CDB7DEB789836A835C834B833E8300
:1010A0002D8389818A3150F08BE290E0FC01208110
:1010B0008BE290E02460FC01208309C08BE290E089
:1010C000FC0120818BE290E02B7FFC0120838B814F
:1010D0009C81843F914050F48BE290E0FC012081A0
:1010E0008BE290E02860FC01208309C08BE290E055
:1010F000FC0120818BE290E0277FFC0120838D8121
:101100009E81893C910550F08BE290E0FC012081AA
:101110008BE290E02061FC01208309C08BE290E02B
:10112000FC0120818BE290E02F7EFC0120838A81EC
:10113000823350F48BE290E0FC0120818BE290E05E
:101140002062FC01208309C08BE290E0FC01208139
:101150008BE290E02F7DFC012083000026960FB6E5
:10116000F894DEBF0FBECDBFDF91CF910895CF932E
:10117000DF9300D0CDB7DEB787E690E09A8389830E
:1011800089819A81292F332785EC90E0FC01208307
:1011900084EC90E02981FC01208381EC90E028E937
:1011A000FC01208382EC90E026E0FC01208300001B
:1011B0000F900F90DF91CF910895CF93DF931F92FF
:1011C000CDB7DEB78983000080EC90E0FC01808120
:1011D000882F90E080729927892BB1F386EC90E0FC
:1011E0002981FC01208300000F90DF91CF910895A9
:1011F0001F920F920FB60F9211248F939F93EF932C
:10120000FF93CF93DF93CDB7DEB781E090E090936B
:1012100028018093270186EC90E0FC018081809377
:101220002E010000DF91CF91FF91EF919F918F915F
:101230000F900FBE0F901F901895CF93DF93CDB7EF
:10124000DEB7E0970FB6F894DEBF0FBECDBF84E2E5
:1012500090E0FC01208184E290E02062FC01208388
:101260000E94C10088E00E941F010E942A0260E0E3
:1012700084E00E94B30284E191E00E94CE0280E00B
:1012800090E0AAEFB4E48F839887A987BA8720E01B
:1012900030E04AE755E46F81788589859A850E9418
:1012A000D30CDC01CB018B879C87AD87BE8720E008
:1012B00030E040E85FE36B857C858D859E850E94EC
:1012C000B30B88232CF481E090E0988B8F873FC08C
:1012D00020E03FEF4FE757E46B857C858D859E8549
:1012E0000E94CE0C18164CF520E030E040E251E4AC
:1012F0006F81788589859A850E94D30CDC01CB01AA
:10130000BC01CD010E942A0CDC01CB01988B8F8798
:101310000FC080E991E09A8B898B89899A8901971E
:10132000F1F79A8B898B8F8598890197988B8F8796
:101330008F859889892B69F714C06B857C858D858D
:101340009E850E942A0CDC01CB01988B8F878F85AC
:1013500098899C8B8B8B8B899C890197F1F79C8B4F
:101360008B8B0E9486070E94B70878948AE290E0EF
:10137000FC0120818AE290E02C63FC01208382E062
:101380000E9498079A83898381E00E9498079C8332
:101390008B830E9473050E9414060E944606809368
:1013A0002C010E944606809329010E9446068093E4
:1013B0002B010E94460680932D010E9446068093D1
:1013C0002A0180912C01282F30E080912901882F5B
:1013D00090E0280F391F80912B01882F90E0280F73
:1013E000391F80912D01882F90E0280F391F80919F
:1013F0002A01882F90E02817390759F00E942A0205
:1014000060E080E00E94B3028FE191E00E94CE0292
:1014100017C080912B018D8380912C018E836B816D
:101420007C8189819A812E814D810E94C9072B81FF
:101430003C8189819A81AC016E818D810E94440832
:101440008091270190912801892B09F4B6C0109250
:1014500028011092270180912E01882399F1809113
:101460002E01813399F48BE290E0FC0120818BE224
:1014700090E02460FC01208385E290E0FC01208163
:1014800085E290E02062FC01208316C080912E014D
:10149000803391F48BE290E0FC0120818BE290E0BC
:1014A0002B7FFC01208385E290E0FC01208185E216
:1014B00090E02F7DFC01208380912E010E94DD08A9
:1014C00010922E0189E70E94DD088AE00E94DD0863
:1014D0008DE00E94DD0880E090E0AAEFB3E48D8B00
:1014E0009E8BAF8BB88F20E030E04AE755E46D89E2
:1014F0007E898F89988D0E94D30CDC01CB01898F66
:101500009A8FAB8FBC8F20E030E040E85FE3698DBD
:101510007A8D8B8D9C8D0E94B30B88232CF481E0F7
:1015200090E09E8F8D8F3FC020E03FEF4FE757E464
:10153000698D7A8D8B8D9C8D0E94CE0C18164CF582
:1015400020E030E040E251E46D897E898F89988DFA
:101550000E94D30CDC01CB01BC01CD010E942A0CFE
:10156000DC01CB019E8F8D8F0FC080E991E098A3A5
:101570008F8F8F8D98A10197F1F798A38F8F8D8D05
:101580009E8D01979E8F8D8F8D8D9E8D892B69F7F6
:1015900014C0698D7A8D8B8D9C8D0E942A0CDC0184
:1015A000CB019E8F8D8F8D8D9E8D9AA389A389A14E
:1015B0009AA10197F1F79AA389A380E090E0AAEF9E
:1015C000B4E48BA39CA3ADA3BEA320E030E04AE724
:1015D00055E46BA17CA18DA19EA10E94D30CDC01DE
:1015E000CB018FA398A7A9A7BAA720E030E040E8D5
:1015F0005FE36FA178A589A59AA50E94B30B882304
:101600002CF481E090E09CA78BA73FC020E03FEF47
:101610004FE757E46FA178A589A59AA50E94CE0C43
:1016200018164CF520E030E040E251E46BA17CA1BB
:101630008DA19EA10E94D30CDC01CB01BC01CD0188
:101640000E942A0CDC01CB019CA78BA70FC080E96C
:1016500091E09EA78DA78DA59EA50197F1F79EA766
:101660008DA78BA59CA501979CA78BA78BA59CA557
:10167000892B69F714C06FA178A589A59AA50E9446
:101680002A0CDC01CB019CA78BA78BA59CA598AB52
:101690008FA78FA598A90197F1F798AB8FA76FCE69
:1016A000CF93DF93CDB7DEB78CE790E0FC011082DB
:1016B0008CE790E0FC0120818CE790E02260FC0147
:1016C00020838AE790E0FC0120818AE790E020688F
:1016D000FC0120830000DF91CF910895CF93DF9329
:1016E00000D000D0CDB7DEB79C838B838AE790E033
:1016F000FC0120818AE790E02064FC012083000047
:101700008AE790E0FC018081882F90E0807499271F
:10171000892BB1F788E790E0FC01808191819A8361
:10172000898389819A819695879596958795282FA3
:101730008B819C81FC01208380E00F900F900F90A3
:101740000F90DF91CF910895A29FB001B39FC00188
:10175000A39F700D811D1124911DB29F700D811DDD
:101760001124911D08950E94590C08F481E00895F8
:101770000E94CC0B0C94940C0E948D0C58F00E948B
:10178000860C40F029F45F3F29F00C947D0C511138
:101790000C94C80C0C94830C0E94A50C68F399233C
:1017A000B1F3552391F3951B550BBB27AA2762175D
:1017B0007307840738F09F5F5F4F220F331F441F6A
:1017C000AA1FA9F335D00E2E3AF0E0E832D091509E
:1017D0005040E695001CCAF72BD0FE2F29D0660F8B
:1017E000771F881FBB1F261737074807AB07B0E8CE
:1017F00009F0BB0B802DBF01FF2793585F4F3AF0D4
:101800009E3F510578F00C947D0C0C94C80C5F3F02
:10181000E4F3983ED4F3869577956795B795F79559
:101820009F5FC9F7880F911D9695879597F9089541
:10183000E1E0660F771F881FBB1F621773078407DD
:10184000BA0720F0621B730B840BBA0BEE1F88F7EC
:10185000E09508950E94AD0C88F09F5798F0B92F3D
:101860009927B751B0F0E1F0660F771F881F991FD5
:101870001AF0BA95C9F714C0B13091F00E94C70CA4
:10188000B1E008950C94C70C672F782F8827B85FB4
:1018900039F0B93FCCF3869577956795B395D9F72D
:1018A0003EF490958095709561957F4F8F4F9F4F37
:1018B0000895990F0008550FAA0BE0E8FEEF1616E1
:1018C0001706E807F907C0F012161306E407F50734
:1018D00098F0621B730B840B950B39F40A2661F0A8
:1018E000232B242B252B21F408950A2609F4A1404B
:1018F000A6958FEF811D811D089597F99F6780E858
:1019000070E060E008959FEF80EC089500240A9451
:101910001616170618060906089500240A941216CA
:101920001306140605060895092E0394000C11F4FD
:10193000882352F0BB0F40F4BF2B11F460FF04C0AA
:101940006F5F7F4F8F4F9F4F089557FD9058440F03
:10195000551F59F05F3F71F04795880F97FB991F0E
:1019600061F09F3F79F087950895121613061406CB
:10197000551FF2CF4695F1DF08C016161706180658
:10198000991FF1CF86957105610508940895E89433
:10199000BB2766277727CB0197F908950E94590C3A
:1019A00008F48FEF08950E94E60C0C94940C0E94AA
:1019B000860C38F00E948D0C20F0952311F00C94C9
:1019C0007D0C0C94830C11240C94C80C0E94A50C63
:1019D00070F3959FC1F3950F50E0551F629FF00182
:1019E000729FBB27F00DB11D639FAA27F00DB11D9B
:1019F000AA1F649F6627B00DA11D661F829F222724
:101A0000B00DA11D621F739FB00DA11D621F839FAA
:101A1000A00D611D221F749F3327A00D611D231F80
:101A2000849F600D211D822F762F6A2F11249F57CE
:101A300050409AF0F1F088234AF0EE0FFF1FBB1FD1
:101A4000661F771F881F91505040A9F79E3F510590
:101A500080F00C947D0C0C94C80C5F3FE4F3983E2E
:101A6000D4F3869577956795B795F795E7959F5F3A
:101A7000C1F7FE2B880F911D9695879597F90895CC
:101A80004532510520F4423010F00C944B0DFB010F
:101A90001082CB010895BB274A3031F4992322F4F8
:101AA000BDE2909581959F4F0C94570DBB27FB018C
:101AB0005527AA27880F991FAA1FA41710F0A41B47
:101AC00083955051B9F7A05DAA3308F0A95DA193A1
:101AD000009779F7B111B1931192CB010C94700D6D
:101AE000DC01FC01672F71917723E1F7329704C085
:101AF0007C916D9370836291AE17BF07C8F3089510
:041B0000F894FFCF87
:101B0400574C3A0020543A004320483A00252054C8
:101B140044533A0052656164696E672E2E2E004567
:061B240072726F720000F6
:00000001FF
